:20000000E3C1000002C2000000C20000FEC10000FCC10000FAC10000F8C10000F6C100000F
:20002000F4C10000F2C10000F0C100000C946825ECC10000EAC10000E8C10000E6C10000D2
:20004000E4C100000C94D113E0C10000DEC10000DCC10000DAC10000D8C100000C9468134B
:20006000D4C100000C94CA190C94571ACEC10000CCC10000CAC10000C8C10000C6C10000A0
:20008000C4C10000C2C10000C0C100000C940D18BCC10000BAC10000B8C10000B6C100002A
:2000A000B4C10000B2C10000B0C10000AEC10000ACC10000AAC10000A8C10000A6C10000D0
:2000C000A4C10000A2C10000A0C100009EC100009CC100009AC1000098C1000096C1000030
:2000E00094C100009A35A035A335A635AB35B335BB35583658365836C835CB35D435DD35DA
:20010000583658365836583658365836E835F235FE350636093612361B362136583658368D
:200120002A3633363E363D05AE05AE054705540561056E05AE057205AE058005AE058A05B8
:2001400094059E05041A061A441A441A441A441A441A441A441A441A441A441A121A141A1F
:20016000161A181A1A1A1C1A1E1A201A441A241A261A281A2A1A2C1A2E1A441A301A321A5D
:20018000084AD73B3BCE016E84BCBFFDC12F3D6C74319ABD56833DDA3D00C77F11BED9E4F3
:2001A000BB4C3E916BAAAABE000000803F05A84CCDB2D44EB93836A9020C50B99186880805
:2001C0003CA6AAAA2ABE000000803F000D0A4772626C20312E3169204D6567615620342027
:2001E0004178697320526F75746572205B27242720666F722068656C705D0D0A00244E00C6
:200200005B4F50543A003A005B4158533A005B5645523A312E3169204D65676156203420BC
:200220004178697320526F757465722E32303139303132303A005B544C4F3A005B47393200
:200240003A003330003238005B4700204700204D0020530020460020540033382E005B4799
:20026000433A47005B484C503A242420242320244720244920244E2024783D76616C202468
:200280004E783D6C696E6520244A3D6C696E652024534C50202443202458202448207E20A0
:2002A00021203F206374726C2D785D0D0A00536C656570696E6700526573746F72696E67DC
:2002C000207370696E646C6500526573746F72696E672064656661756C74730050676D2096
:2002E000456E6400436865636B204C696D69747300436865636B20446F6F72004469736164
:20030000626C656400456E61626C65640043617574696F6E3A20556E6C6F636B6564002712
:200320002448277C2724582720746F20756E6C6F636B00526573657420746F20636F6E745B
:20034000696E7565005B4D53473A005B5052423A006572726F723A00414C41524D3A007C70
:20036000413A007C4F763A007C57434F3A007C506E3A007C46533A007C4C6E3A007C426691
:200380003A007C57506F733A007C4D506F733A00536C65657000446F6F723A004368656375
:2003A0006B00416C61726D00486F6D65004A6F6700486F6C643A0052756E0049646C6500C8
:2003C0000D0A006F6B0D0A0011241FBECFEFD1E2DEBFCDBF00E00CBF12E0A0E0B2E0E4E4F2
:2003E000FFE700E00BBF02C007900D92AC30B107D9F720E1ACE0B2E001C01D92A53AB207EA
:20040000E1F70E94BD300C94A03FFACDEBE6F0E08081887F8083E8E6F0E080818E7F8083D4
:20042000089520982198229823982098219822982398289A299A2A9A2B9A289A299A2A9AFC
:200440002B9A80919B0283FF0BC080916B00876080936B0080916800816080936800089589
:20046000D5CFF999FECF92BD81BD81E08FBB80B50895CF92DF92FF920F931F93CF93DF93E4
:2004800084E0C82E82E0D82EA0E0B2E0C4E0D2E000E012E020E030E080E041E050E0922FDE
:2004A000F601619171916F01FB01F080BA010D9002C0660F771F0A94E2F76F2139F4BA0161
:2004C000022E01C0660F0A94EAF7862B69917991FB01F080F801BA01019002C0660F771F04
:2004E0000A94E2F78F016F2131F4BA0101C0660F9A95EAF7862B2F5F3F4F2430310579F679
:2005000090919B0296FD8095DF91CF911F910F91FF90DF90CF90089561E172E083EC92E0E6
:200520000C9418259F92AF92BF92CF92DF92EF92FF920F931F93CF93DF935B018A017C01AB
:20054000E40EF51EEC01912C6B01C81AD90AC6018C0F9D1FCE15DF0581F083DF911008C09A
:20056000292D990C330B232F221F2227221F01C021E0982E920E8993EACFC501800F911F23
:2005800070DF21E030E0981611F020E030E0C901DF91CF911F910F91FF90EF90DF90CF9076
:2005A000BF90AF909F900895F894F999FECF92BD81BD81E08FBB80B58627482F082E000C23
:2005C000550B262F30E024233523232B39F06F3F19F060BD84E006C084E104C0882321F05D
:2005E00060BD84E28FBBF99A789408959F92AF92BF92CF92DF92EF92FF920F931F93CF9395
:20060000DF935C018A017B01E40EF51EEB01912C6C01C61AD70ACE018C0D9D1DCE15DF053F
:2006200081F0911008C0292D990C330B232F221F2227221F01C021E06991922E960EB4DFD7
:20064000EACF692DC501800F911FDF91CF911F910F91FF90EF90DF90CF90BF90AF909F908D
:20066000A3CFE5E0F1E080818D7F808380818E7F8083089590913302911114C0811102C094
:20068000F0DF0EC086FF05C09091050192609093050187FF05C080910501816080930501D5
:2006A0001092400208952F923F924F925F926F927F928F929F92AF92BF92CF92DF92EF920C
:2006C000FF920F931F93CF93DF93CDB7DEB7C955D1090FB6F894DEBF0FBECDBF82E4E7EFCD
:2006E000F2E0DF011D928A95E9F78BE0EBEAF2E0A8EFB2E001900D928A95E1F78091A50F73
:20070000843211F00C94F21281E08093F8021092F90283E08AA3B1E0BFA3212C312C21968F
:200720001FAE1EAE21971BAA1BA21BA6EE24E394F12C0AE0A02EB12C81E6882E83E0982EA4
:200740008AA1E82FF0E0EB55F04FD080DD2009F471C29FEB9D0D9A3110F00C94C1128F5F2B
:200760008AA3BE01625E7F4FCE0182960E94D72D882311F40C94C3124E8C5F8C68A079A067
:20078000C301B2010E94113F0E94793C062F70E080E090E00E94A73C9B01AC01C301B201FF
:2007A0000E942B3B20E030E048EC52E40E94433E0E94A63E0E94793CCB01E7E4DE1629F013
:2007C000FDE4DF1609F4F1C045C1083209F4C6C020F5043168F4013108F08AC0043009F487
:2007E00052C008F464C00A3009F445C00C94D1120C3109F440C050F4063110F00C94D112D0
:2008000025E1201B2093FA0216E0ADC00E3199F1063209F44CC00C94D1120D3309F498C063
:20082000A8F4053381F140F40B3209F47AC0013309F477C00C94D1120C3310F00C94D1121D
:200840006AEC600F6093FE0219E08DC00C3538F40A3508F053C0003581F10C94D1120C3578
:2008600051F00F3510F00C94D1122EE5201B2093F90215E078C0009731F42BA521110C94E9
:20088000C51231E03BA70093F702202F2D7F2C3119F00C3509F064C0009721F00A9711F0F9
:2008A0000C94D112600F6093F70210E061C04BA541110C94C512A2E0ABA70093F8020632F7
:2008C00009F050C08431910559F08E31910541F08832910529F08233910511F00C94D112BD
:2008E000B5010E943C3F66576093F80211E040C06FEE600F6093FC0212E035C0892B31F40D
:2009000066EA600F6093FB0213E032C06A30710511F00C94D1120A3511F40C94D11214E0F4
:2009200027C0BBA5B1110C94C512013331F41092FD0218E0E3E0EBA71BC00A9711F00C94D3
:20094000D112F1E0F093FD0218E023E02BA710C0892B11F00C94D1121AE00AC017E003C00E
:2009600010E001C011E0892B19F087E10C94F912C701012E02C0880F991F0A94E2F72196CF
:200980002EAD3FAD219728233923232B19F085E10C94F9122196AEADBFAD2197A82BB92BDC
:2009A0002196BFAFAEAF2197CBCE892BF1F6063018F4033058F016C0073010F40C94D11278
:2009C0000A30F0F00E3159F00C94D112002319F0013021F104C0B3E0B093FF021FC0009376
:2009E000FF021CC0043021F0053031F080E101C080E28093010302C0109201031CE00FC0B1
:200A0000083021F0093031F080E801C080E48093000302C0109200031DE001C01BE0C701A8
:200A2000012E02C0880F991F0A94E2F721962EAD3FAD219728233923232B09F0A8CF2196AD
:200A4000EEADFFAD2197E82BF92B2196FFAFEEAF219776CE8D2D0D2C000C990BAA0BBB0B44
:200A6000FC01E654F109EF30F10508F077C08827ED56FF4F8F4F0C94723F409203035092D8
:200A80000403609205037092060310E0AEC040920703509208036092090370920A03FBA972
:200AA000F160FBAB11E0A1C040920B0350920C0360920D0370920E032BA922602BAB12E0E9
:200AC00094C040920F035092100360921103709212033BA934603BAB13E087C00093170387
:200AE00014E083C0C301B2010E94743C609318037093190380931A0390931B0315E075C02E
:200B000040921C0350921D0360921E0370921F0316E06BC040922003509221036092220378
:200B20007092230317E061C04092240350922503609226037092270318E057C020E030E00C
:200B40004FE753E4C301B2010E94083E181614F40C94C7120093280319E047C048E5D41249
:200B60000DC04092290350922A0360922B0370922C038BA181608BA31AE02FC099E5D912BD
:200B80000DC040922D0350922E0360922F0370923003ABA1A260ABA31BE01FC0BAE5DB1218
:200BA0000DC040923103509232036092330370923403EBA1E460EBA31CE00FC0F1E4DF12FB
:200BC0000CC0409235035092360360923703709238032BA128602BA31DE088EA8D0D8330DD
:200BE00020F031E4D3120C94D1126701012E02C0CC0CDD1C0A94E2F7C60182219321892BF5
:200C000011F00C94C912C401012E02C0959587950A94E2F780FF0BC020E030E0A901C3011D
:200C2000B2010E94053C87FF02C00C94CB122C283D2886CD4BA1442329F08BA5811102C05D
:200C400092E09BA725FE0FC08091180390911903A0911A03B0911B0381389649A849B10599
:200C600014F00C94CD12FFA1FF2329F020FC02C00C94D71218C08091F902813071F42BA5E5
:200C80002230E1F58091F8028035C1F18823B1F120FC02C00C94D71231C08091AC028111C4
:200CA0002DC020FE1BC08091FA02813039F523E333E34BEC51E460910303709104038091CA
:200CC0000503909106030E94433E6093030370930403809305039093060310C08091BA02D8
:200CE0009091BB02A091BC02B091BD028093030390930403A0930503B093060330FC10C061
:200D00008091B6029091B702A091B802B091B9028093240390932503A0932603B0932703FB
:200D20008091F702843039F426FC03C08CE10C94F912E89426F88091FC02882371F1813064
:200D4000B1F432E060963FAF609741E02F964FAF2F9784E02E968FAF2E9791E061969FAF76
:200D600061972A961FAE2A97A2E0ABAF2BC0B1E06096BFAF6097E4E02F96EFAF2F97F2E0BB
:200D80002E96FFAF2E9761961FAE619722E02A962FAF2A9731E03BAF15C044E060964FAF17
:200DA000609782E02F968FAF2F9791E02E969FAF2E97A2E06196AFAF6197B1E02A96BFAF3B
:200DC0002A971BAE8091FA02813021F0EBA5E330B9F52DC0A7EFEA2EA2E0FA2E00E010E054
:200DE000FBA1CF2ED12CC601002E02C0959587950A94E2F780FF12C023E333E34BEC51E410
:200E0000D701D2966D917D918D919C91D5970E94433EF70162AB73AB84AB95AB0F5F1F4F3E
:200E2000F4E0EF0EF11C03301105E9F6CFCF8091FD02813029F42BA1243011F00C94CF128E
:200E400080E1E3EDF2E0DE01119601900D928A95E1F721968EAD9FAD219791FD09C0909174
:200E6000F7029FA79A30C9F09C3509F4B1C016C18091FE02873018F08DE10C94F912909190
:200E8000B102891761F3BE016F5F7F4F0E943F18882311F40C94E512E2CFABA1A11103C09E
:200EA0008AE10C94F912C10180759927892B09F43DCF60911C0370911D0380911E03909164
:200EC0001F030E94113F0E94793C6730A8F680911703843141F0823011F00C94D11227FE06
:200EE00002C00C94D112BFEA2B22662319F061506FAB03C0E091FE02EFAB67E073E08FA9BA
:200F00000E943F18882311F40C94E512709017038090F3029090F402A090F502B090F602FD
:200F200007EF12E0FBEACF2EF2E0DF2EE12CF12CFBA14F2E512CC2010E2C02C09595879543
:200F40000A94E2F780FF36C024E172122AC0D601D8962D913D914D915C91DB9758966D9138
:200F60007D918D919C915B970E942B3BF80122A933A944A955A90E942B3BD80150966D93CC
:200F80007D938D939C935397B2E0EB1213C0A50194010E942B3BF801608B718B828B938B58
:200FA00009C0F80182A993A9A4A9B5A9808B918BA28BB38BFFEFEF1AFF0A0C5F1F4F24E0EE
:200FC000C20ED11C34E0E316F10409F0B4CF35C14BA1442309F464CF8090F3029090F40242
:200FE000A090F502B090F602EBEACE2EE2E0DE2ECE0101963C0107EF12E0E12CF12C442ECC
:20100000512CC2010E2C02C0959587950A94E2F780FF29C0D3012D913D914D915C91F6014D
:20102000608D718D828D938D0E942B3BD801D2962D913D914D915C91D5970E942B3BF80189
:2010400062AB73AB84AB95ABF2E0EF1216C0A50194010E942B3BD801D2966D937D938D9399
:201060009C93D5970AC0F60180AD91ADA2ADB3ADF80182AB93ABA4ABB5ABFFEFEF1AFF0AE7
:2010800024E0C20ED11C34E0630E711C0C5F1F4F44E0E416F10409F0B4CFCEC08BA58330A4
:2010A00071F49FA59E3109F48FC0953309F4BEC09C3109F0C1C067E073E086E088C0ABA14E
:2010C000AA2379F3B091FB02BFAB4090F3025090F4026090F5027090F6027BEAC72E72E009
:2010E000D72E07EF12E0FE0131964F01E12CF12CAA2EB12CC5010E2C02C0959587950A9468
:20110000E2F780FD0BC0F601808D918DA28DB38DF80182AB93ABA4ABB5AB45C0FFA5F53339
:2011200009F441C02FA921112BC0D601D8962D913D914D915C91DB97F401608171818281E3
:2011400093810E942C3BD801D2962D913D914D915C91D5970E942C3BF80162AB73AB84AB12
:2011600095ABF2E0EF121FC0A30192010E942C3BD801D2966D937D938D939C93D59713C05E
:20118000F601208D318D428D538DD801D2966D917D918D919C91D5970E942C3BF80162AB2B
:2011A00073AB84AB95ABFFEFEF1AFF0A24E0C20ED11C0C5F1F4F34E0830E911C44E0E41698
:2011C000F10409F097CF6DCF67E073E087E00E943F18882311F40C94E5128BA1811103C0BD
:2011E0001FAA1BA62AC0ABEAB2E0E7EFF2E080E090E04BA1242F30E0A901082E02C0559501
:2012000047950A94E2F740FD0AC058964D915D916D917C915B97408B518B628B738B019694
:20122000149634968430910539F706C08091F802823010F00C94D3121FAA8091F8028FA7AE
:20124000803529F49BA191110C94D512F2C2ABA5A23009F0EEC2BFA5B11104C0EBA1E11170
:20126000E8C22BC020E030E0A901609103037091040380910503909106030E94053C88234F
:2012800011F40C94D712FFA5FC3809F4BCC240F4F230A9F0F330B1F0F13009F0CAC20AC04A
:2012A0002FA52E3809F4AFC208F4AAC22F3809F4A7C2BFC23BA13111BCC21BA6BAC24FA107
:2012C00044604FA38BA1882309F4EACDBBADAB2FB0E02396BFAFAEAF23972A96FFAD2A97B0
:2012E000EF2FF0E02796FFAFEEAF279781E090E07C010BAC02C0EE0CFF1C0A94E2F72A9627
:201300000FAC2A9702C0880F991F0A94E2F7E82AF92A2BA1822F90E08E219F21892B11F47F
:201320000C94D912FD01EE0FFF1FEE0FFF1FE950FD4FAA0FBB1FAA0FBB1FAD53BD4F2D9179
:201340003D914D915C9162A973A984A995A90E942B3B2B013C012796EEADFFAD2797EE0F32
:20136000FF1FEE0FFF1FE950FD4F2796AEADBFAD2797AA0FBB1FAA0FBB1FAD53BD4F2D917D
:201380003D914D915C9162A973A984A995A90E942B3B4B015C01610130E8C322DD2427FEEC
:2013A0005AC1E89427F840E150E069E273E083EC92E00E94933F892B19F481E20C94F91264
:2013C0008091FA028130B1F423E333E34BEC51E4609120037091210380912203909123036C
:2013E0000E94433E609320037093210380932203909323038091200390912103A09122033D
:20140000B09123038BAB9CABADABBEABA3019201C301B2010E94433E25966CAF7DAF8EAF17
:201420009FAF2597A5019401C501B4010E94433E29966CAF7DAF8EAF9FAF299720E030E068
:2014400040E850E46BA97CA98DA99EA90E94433E2BA93CA94DA95EA90E94433E25962CADEA
:201460003DAD4EAD5FAD25970E942B3B29962CAD3DAD4EAD5FAD29970E942B3B6B017C017D
:2014800020E030E0A9010E94053C87FF02C00C94DB12C701B6010E94D03E6B017C01299603
:2014A0002CAD3DAD4EAD5FAD299725966CAD7DAD8EAD9FAD25970E942C3B0E94D03E9B010C
:2014C000AC01C701B60190580E940C3C6B017C019FA5933021F4F7FAF094F7F8F09420E021
:2014E00030E0A9016BA97CA98DA99EA90E94053C87FF11C0F7FAF094F7F8F0948BA99CA9E1
:20150000ADA9BEA9B0588093200390932103A0932203B09323038091FC028823B1F18130BB
:2015200009F066C0A7019601C501B4010E94433E9B01AC01C301B2010E942B3B20E030E0D7
:2015400040E05FE30E94433E60930F03709310038093110390931203A7019601C301B201D6
:201560000E94433EA50194010E942C3B20E030E040E05FE30E94433E609307037093080364
:201580008093090390930A0354C1A7019601C501B4010E94433E9B01AC01C301B2010E94A8
:2015A0002B3B20E030E040E05FE30E94433E60930703709308038093090390930A03A7012E
:2015C0009601C301B2010E94433EA50194010E942C3B20E030E040E05FE30E94433E60930E
:2015E0000B0370930C0380930D0390930E0321C1A7019601C501B4010E94433E9B01AC016C
:20160000C301B2010E942B3B20E030E040E05FE30E94433E60930B0370930C0380930D0380
:2016200090930E03A7019601C301B2010E94433EA50194010E942C3B20E030E040E05FE3E7
:201640000E94433E60930F03709310038093110390931203EEC0BBA9AB2FB0E0BCABABABB4
:20166000EA22FB22EF2809F4A8C7E1EF2E228091FA02813009F47FC02396EEADFFAD2397EA
:20168000EE0FFF1FEE0FFF1FE95FFC4FC080D180E280F380A7019601C301B2010E942B3B5D
:2016A0002B013C012796EEADFFAD2797EE0FFF1FEE0FFF1FE95FFC4F80819181A281B381CC
:2016C0008BAB9CABADABBEAB9C01AD01C501B4010E942B3B4B015C01A3019201C301B201A7
:2016E0000E94433E2B013C01A5019401C501B4010E94433E9B01AC01C301B2010E942C3BBC
:201700000E94D03E4B015C01A7019601C701B6010E94433E6B017C012BA93CA94DA95EA9F0
:20172000CA01B9010E94433E9B01AC01C701B6010E942C3B0E94D03E6B017C016093200381
:201740007093210380932203909323039B01AC01C501B4010E942B3B4B015C01E894B7F841
:201760002AE037ED43EA5BE3C501B4010E94083E18164CF15EC007EF12E08BA99CA90C2C4B
:2017800002C0959587950A94E2F780FF12C023E333E34BEC51E4D80150966D917D918D9108
:2017A0009C9153970E94433EF801608B718B828B938BFFEFCF1ADF0A0C5F1F4F23E0C21670
:2017C000D104D9F659CF20E030E040E05FE3C501B4010E94083E18160CF4EFCD2FE632E156
:2017E00043E85AE3C701B6010E94433E9B01AC01C501B4010E94083E18160CF4DECD19C081
:201800003FA130613FA38FA58E58823018F44FA148604FA38BA1882309F442CB40E150E0E1
:2018200069E273E083EC92E00E94933F892B09F4C4CD2FA121709FA190FF03C0C1018E7DB3
:2018400003C0C1018E7D9C7FABA5A1119370892B09F0B5C68E010F5E1F4F8DE0F80111923D
:201860008A95E9F7222309F459C021968EAD9FAD2197867B892B09F0A4C68091F70285333E
:2018800011F081119EC68091B6029091B702A091B802B091B9028D8B9E8BAF8BB88F9091E4
:2018A000B4028091B302892B40910303509104036091050370910603498B5A8B6B8B7C8B80
:2018C00084608D8F8091180390911903A0911A03B0911B03898F9A8FAB8FBC8F80919B027E
:2018E00085FF06C089E293E00E94D93981116BC6B80189E293E00E94CB3A80913202811134
:2019000066C60E940A22892B09F461C680E2809332020E94A9250E94CF1659C680919B0288
:20192000F090B40281FF26C08FA58150833018F0FFA1F064FFA32BA1222339F03BA5323039
:2019400021F44FA140684FA315C080E1F81212C08091AB0281509FA19074833030F4992370
:2019600049F09FA190629FA305C0911103C0AFA1A062AFA38091180390911903A0911A0335
:20198000B0911B038093BF029093C002A093C102B093C202898F9A8FAB8FBC8F8091F90260
:2019A0008093AC02882311F088E08D8F8091030390910403A0910503B09106038093BA02A5
:2019C0009093BB02A093BC02B093BD02898B9A8BAB8BBC8B8090240390902503A0902603A6
:2019E000B0902703A50194016091B6027091B7028091B8029091B9020E94053CBFA1B074D1
:201A0000EB2E811103C0EFA1E5FF20C0FF2071F0FFA1F7FD0BC0EE2021F040E050E0BA01FB
:201A200002C0B501A4018F2D0E949C368091240390912503A0912603B09127038093B60248
:201A40009093B702A093B802B093B902E1100CC08091B6029091B702A091B802B091B90278
:201A60008D8B9E8BAF8BB88F809128038093BE02809101039091B402981751F04D895E89FC
:201A80006F89788D0E949C36809101038093B4029D8D8091B402892B8D8FF09000038091A2
:201AA000B3028F15A9F080913202823029F00E9424238F2D0E943A0380910003811103C037
:201AC0001092B30205C09091B302892B8093B3029D8D8091B302892B8D8F8091F70284301A
:201AE00099F4C0901C03D0901D03E0901E03F0901F0380913202823039F00E94242340E00E
:201B0000C701B6010E94862D8091FC028093AF028091FA028093AD022BA5233071F58091B5
:201B2000FD028093B002811108C010923103109232031092330310923403C0903103D09045
:201B40003203E0903303F0903403A70196016091F3027091F4028091F5029091F6020E9414
:201B6000053C882351F0C092F302D092F402E092F502F092F6020E94123A8091FE02909196
:201B8000B102981769F08093B10280E1FE013196A3EDB2E001900D928A95E1F70E94123A66
:201BA0008091FB028093AE028091F7028632F1F138F48C3109F18E31F9F08A3069F04FC003
:201BC0008C35D1F1863609F441C0883209F047C063EC72E087E02DC067E073E08FA90E94A5
:201BE0002B188091B1023FA9381339C080E1E7E0F3E0A3EDB2E025C08D8D81608D8F4BA5A9
:201C0000442329F0B80189E293E00E94CB3AB80187E093E00E94CB3A80E1E7E0F3E0A3EC42
:201C2000B2E001900D928A95E1F719C063EC72E086E00E942B1813C080E1E9E2F3E0A3EEC3
:201C4000B2E001900D928A95E1F707C080E1E3EEF2E0DF011D928A95E9F70E94123A809173
:201C6000F8028093AB02803509F43FC4BBA5B23009F03BC4813021F4BE016F5E7F4F06C0D5
:201C8000811109C08D8D81608D8FB80189E293E00E94CB3A21C48250823008F0B5C38091AA
:201CA000200390912103A0912203B09123038FAB98AFA9AFBAAFABAD94E0A99F80011124F3
:201CC000F801E95FFC4F2196FFAFEEAF219780809180A280B380F801ED53FD4F2081318180
:201CE00042815381C501B4010E942C3B6BA77CA78DA79EA72A962FAD2A97F4E02F9F10010B
:201D00001124C101895F9C4F9CAB8BABDC01CD90DD90ED90FC90F101ED53FD4F20813181FB
:201D200042815381C701B6010E942C3B6FA778AB89AB9AAB2401350177FA709477F870948F
:201D4000D701C601B0588BA39CA3ADA3BEA3F801E75DFC4F2BA53CA54DA55EA560817181BD
:201D6000828193810E942B3B6B017C01F101E75DFC4F2FA538A949A95AA96081718182815A
:201D800093810E942B3B4B015C01A7019601C301B2010E94433E6BAF7CAF8DAF9EAFA50131
:201DA00094016BA17CA18DA19EA10E94433E9B01AC016BAD7CAD8DAD9EAD0E942C3B6BAFA3
:201DC0007CAF8DAF9EAFA5019401C301B2010E94433E4B015C01A70196016BA17CA18DA13B
:201DE0009EA10E94433E9B01AC01C501B4010E942B3B2BAD3CAD4DAD5EAD0E949F3B6B0107
:201E00007C019FA192FF13C02DEB37E346E055EBC701B6010E94083E87FD1DC02BED3FE00A
:201E200049EC50E4C701B6010E942B3B12C02DEB37E346E055E3C701B6010E94053C1816C0
:201E400054F02BED3FE049EC50E4C701B6010E942C3B6B017C0180908F0290909002A090AA
:201E60009102B09092022FA938AD49AD5AADCA01B9010E942C3BA50194010E942B3BA501CA
:201E800094010E94433E0E94D03E4B015C0120E030E040E05FE3C701B6010E94433E2FA945
:201EA00038AD49AD5AAD0E94433E9F77A50194010E940C3C0E94E23C0E94793C7CAF6BAF86
:201EC000DB01AB2B09F4D8CE1D8D4B01A12CB12C13FF12C0C501B4010E94A53C9B01AC01E2
:201EE00069897A898B899C890E94433E698B7A8B8B8B9C8B177F1D8FC501B4010E94A53C1B
:201F00004B015C019B01AC01C701B6010E940C3C6FA378A789A79AA76196EFAD6197B4E0A5
:201F2000EB9FC0011124FC01E75DFC4FDC01AD53BD4F2D913D914D915C916081718182817F
:201F400093810E942B3BA50194010E940C3C6FAB78AF89AF9AAF2091CF023091D002409198
:201F6000D1025091D202609135037091360380913703909138030E942B3BA50194010E94EA
:201F80000C3C64966CAF7DAF8EAF9FAF64972FA138A549A55AA5CA01B9010E94433E9B0154
:201FA000AC0160E070E080E090E40E942B3B6B017C012BEA3AEA4AE25EE36FA178A589A51E
:201FC0009AA50E94433E4B015C0120E030E040E850E4C701B6010E942C3B9B01AC01C501F3
:201FE000B4010E94433E2D966CAF7DAF8EAF9FAF2D9720E030E040E05FE3C701B6010E941D
:20200000433E25966CAF7DAF8EAF9FAF259710E022242394312C2E96FFAD2E97F17065961B
:20202000FFAF65972E962FAD2E97227066962FAF66972E963FAD2E9734702E963FAF2E9798
:202040002F964FAD2F97417067964FAF67972F968FAD2F97827068968FAF68972F969FAD4A
:202060002F9794702F969FAF2F976096AFAD6097A1706996AFAF69976096BFAD6097B2708B
:202080006A96BFAF6A976096EFAD6097E4706096EFAF6097EBADFCADE215F30509F4ECCD83
:2020A0001C3008F048C02BA13CA14DA15EA125966CAD7DAD8EAD9FAD25970E94433E6B016E
:2020C0007C01A30192012D966CAD7DAD8EAD9FAD2D970E94433EA70196010E942C3B7B0114
:2020E000082FD92EA301920125966CAD7DAD8EAD9FAD25970E94433E4B015C012BA13CA1B5
:202100004DA15EA12D966CAD7DAD8EAD9FAD2D970E94433E9B01AC01C501B4010E942B3B92
:202120002B013C011F5FC701A02FBD2D8BA39CA3ADA3BEA36DC0B10180E090E00E94A53CE7
:202140002FA138A549A55AA50E94433E6B017C010E94093C6BA37CA38DA39EA3C701B601D5
:202160000E94C63E4B015C012196AEADBFAD2197CD90DD90ED90FC90F7FAF094F7F8F0941F
:20218000ABA9BCA98D919D910D90BC91A02D29968CAF9DAFAEAFBFAF2997A70196016BA167
:2021A0007CA18DA19EA10E94433E2B013C0129962CAD3DAD4EAD5FAD2997C501B4010E94A3
:2021C000433E9B01AC01C301B2010E942C3B2B013C01A7019601C501B4010E94433E6B0103
:2021E0007C0129962CAD3DAD4EAD5FAD29976BA17CA18DA19EA10E94433E9B01AC01C7014F
:20220000B6010E942B3B6BA37CA38DA39EA310E06596BFAD6597BB2381F0A30192016BA578
:202220007CA58DA59EA50E942C3B6093C3027093C4028093C5029093C6026696EFAD669724
:20224000EE2381F0A30192016BA57CA58DA59EA50E942C3B6093C7027093C8028093C902AF
:202260009093CA022E96FFAD2E97FF2381F0A30192016BA57CA58DA59EA50E942C3B6093CE
:20228000CB027093CC028093CD029093CE0267962FAD6797222391F02BA13CA14DA15EA198
:2022A0006FA578A989A99AA90E942C3B6093C3027093C4028093C5029093C60268963FAD3B
:2022C0006897332391F02BA13CA14DA15EA16FA578A989A99AA90E942C3B6093C702709320
:2022E000C8028093C9029093CA022F964FAD2F97442391F02BA13CA14DA15EA16FA578A90D
:2023000089A99AA90E942C3B6093CB027093CC028093CD029093CE0269968FAD69978823F3
:20232000B1F02FA938AD49AD5AAD6091C3027091C4028091C5029091C6020E942C3B609308
:20234000C3027093C4028093C5029093C6026A969FAD6A979923B1F02FA938AD49AD5AADC6
:202360006091C7027091C8028091C9029091CA020E942C3B6093C7027093C8028093C9029F
:202380009093CA026096AFAD6097AA23B1F02FA938AD49AD5AAD6091CB027091CC0280913F
:2023A000CD029091CE020E942C3B6093CB027093CC028093CD029093CE0264962CAD3DAD31
:2023C0004EAD5FAD64976091CF027091D0028091D1029091D2020E942C3B6093CF027093BD
:2023E000D0028093D1029093D202BE016F5E7F4F83EC92E00E94CB3A8091330281116CC048
:20240000BFEF2B1A3B0A46CE8D8D84608D8F80913202823009F460C00E9424238091330213
:20242000811163C0FFA1F071FF2E109237022FA123FB882780F90E943020809106018078C6
:2024400090911002891749F084E00E94FF240E941A2280E00E94302048C0B80189E293E078
:202460000E94CB3A81E08093310282E00E940F250E941A2280913302811137C080913202E4
:202480008111F6CF80913102813081F4FF2051F080E1E1E1F2E0A1E2B2E001900D928A95C2
:2024A000E1F707C085E00E94FF2403C081E0809337021092310280E00E9430200E941A22DE
:2024C0000E942C2D0E9432230E9486210E94BA368091370281118AC080E1E9E2F3E0A3EC7B
:2024E000B2E001900D928A95E1F78091FF028093B202882309F47DC00E9424238091B202B7
:2025000090913202833041F49230C1F188E00E940F250E941A2232C081E08093AB02109239
:20252000AF021092AE021092AC021092B1021092B4021092B30284E680933C0280933D0237
:2025400080933E02923081F063ED72E080E097D58823D9F10E94123A40E050E0BA0180E0B9
:20256000F4D480E00E943A0385E493E00E9478218CED92E00E9478210E94E91B1092B2021B
:202580002FC081E036C082E034C088E132C086E230C089E12EC084E02CC08BE12AC085E287
:2025A00028C084E126C08EE124C08FE122C086E120C080E21EC082E21CC083E21AC084E2D7
:2025C00018C080E116C08FE014C087E012C080E1E9E2F3E0A3ECB2E001900D928A95E1F729
:2025E00080E007C01AA21FA20C948D030E948C027CCFC75ADF4F0FB6F894DEBF0FBECDBFF6
:20260000DF91CF911F910F91FF90EF90DF90CF90BF90AF909F908F907F906F905F904F9006
:202620003F902F9008959093AD008093AC00892B21F48091A000877F03C08091A000886004
:202640008093A0000895CF93DF934091870250E06091880270E0ABE6B5E0E7E6F5E080E0D9
:2026600090E0282FEA01082E02C0D595C7950A94E2F7C0FF0EC0882331F0813031F0833095
:2026800031F030E405C034E003C030E101C031E03083EB0102C0D595C7952A95E2F7C0FF08
:2026A0000EC0882331F0813031F0833031F020E805C028E003C020E201C022E02C93019627
:2026C000119631968430910561F6DF91CF9108951F920F920FB60F9211240BB60F928F930D
:2026E0009F93EF93FF9381B38B7FE7E6F5E09081892B81BB81B38F7E9181892B81BB81B33C
:202700008F7B9281892B81BB82B18E7F9381892B82B915BCFF91EF919F918F910F900BBED0
:202720000F900FBE0F901F90189580916F008D7F80936F0080918100887F81608093810016
:2027400010926F0580918902909132028F3F39F420919D0F211103C0903881F402C0943062
:2027600069F090E0009741F0EFE9FFE03197F1F700C000000197F6CF81E001C080E09091A1
:202780009B0292FF02C091E08927882329F0149A159A169A179A0895149815981698179853
:2027A00008951F920F920FB60F9211240BB60F920F931F932F933F934F935F936F937F935D
:2027C0008F939F93AF93BF93CF93DF93EF93FF9380916F058111CCC281B3877F909186059E
:2027E000892B81BB81B38F7D90918705892B81BB81B38F7790918805892B81BB82B18D7FF5
:2028000090918905892B82B981B38B7F90918205892B81BB81B38F7E90918305892B81BB6A
:2028200081B38F7B90918405892B81BB82B18E7F90918505892B82B98091810586BD82E0AA
:2028400085BD81E080936F05789480919F059091A005892B09F0E1C08091380E9091890E6A
:20286000981709F4C5C08091380E28E0829FC0011124FC01E75CF14FF093A005E0939F05F2
:202880002281338130938900209388002081318130939B0520939A05E48120919C052E1756
:2028A000A1F1E0939C05C9E1EC9FF0011124E657F14FF0939E05E0939D05408951896289D1
:2028C0007389769567955795479540937C0550937D0560937E0570937F0540937805509344
:2028E000790560937A0570937B0540937405509375056093760570937705409370055093A4
:2029000071056093720570937305E0919D05F0919E05DF0154964BE655E006E815E0BF0152
:20292000685E7F4F3D91EA012991AE012327E80129938E01A617B707A9F7DC01A75CB14F68
:2029400015969C9115974081518162817381092E04C076956795579547950A94D2F7409385
:202960008A0550938B0560938C0570938D054481558166817781092E04C0769567955795D4
:2029800047950A94D2F740938E0550938F0560939005709391054085518562857385092E45
:2029A00004C076956795579547950A94D2F740939205509393056093940570939505448546
:2029C00055856685778504C076956795579547959A95D2F74093960550939705609398052E
:2029E0007093990516968D919C9117971CDE15C09CDEE0919D05F0919E05808D882349F020
:202A00001092AD001092AC008091A000877F8093A00084E00E940F25ABC180913102813014
:202A2000B9F480910601807890911002891781F01092310280E1E1E1F2E0A1E2B2E0019025
:202A40000D928A95E1F780919C0F806480939C0F10928205109283051092840510928505D8
:202A60004091700550917105609172057091730580918A0590918B05A0918C05B0918D05F2
:202A8000840F951FA61FB71F8093700590937105A0937205B0937305E0919D05F0919E0597
:202AA0004089518962897389481759076A077B0768F524E0209382054089518962897389B5
:202AC000841B950BA60BB70B8093700590937105A0937205B09373052489809111029091CC
:202AE0001202A0911302B091140223FF04C00197A109B10903C00196A11DB11D8093110237
:202B000090931202A0931302B09314024091740550917505609176057091770580918E05AB
:202B200090918F05A0919005B0919105840F951FA61FB71F8093740590937505A09376058A
:202B4000B09377054089518962897389481759076A077B0768F520E120938305408951893E
:202B600062897389841B950BA60BB70B8093740590937505A0937605B09377052589809167
:202B8000150290911602A0911702B091180225FF04C00197A109B10903C00196A11DB11D76
:202BA0008093150290931602A0931702B0931802409178055091790560917A0570917B0569
:202BC0008091920590919305A0919405B0919505840F951FA61FB71F8093780590937905DC
:202BE000A0937A05B0937B054089518962897389481759076A077B0768F520E42093840587
:202C00004089518962897389841B950BA60BB70B8093780590937905A0937A05B0937B05D2
:202C200026898091190290911A02A0911B02B0911C0227FF04C00197A109B10903C001968F
:202C4000A11DB11D8093190290931A02A0931B02B0931C0240917C0550917D0560917E05A1
:202C600070917F058091960590919705A0919805B0919905840F951FA61FB71F80937C0543
:202C800090937D05A0937E05B0937F054089518962897389481759076A077B0768F521E078
:202CA000209385054089518962897389841B950BA60BB70B80937C0590937D05A0937E05AC
:202CC000B0937F05278980911D0290911E02A0911F02B091200221FF04C00197A109B10977
:202CE00003C00196A11DB11D80931D0290931E02A0931F02B093200290913202E0E7F5E0CF
:202D0000A2E3B2E024E735E0943031F4428916968C9116978423828B319611962E173F07A5
:202D200099F780919A0590919B05019790939B0580939A05892B69F41092A00510929F05E7
:202D40008091380E8F5F8093380E8A3011F41092380EA7E6B5E0E2E8F5E026E835E08D912C
:202D60009081892781932E173F07C9F710926F05FF91EF91DF91CF91BF91AF919F918F915D
:202D80007F916F915F914F913F912F911F910F910F900BBE0F900FBE0F901F901895809193
:202DA0009B0282FF21C0149A159A169A179A80916705809382058091680580938305809115
:202DC00069058093840580916A058093850580918602880F845081958093810580916F0099
:202DE000826080936F0008951498159816981798DECF4F925F926F927F928F929F92AF92F8
:202E0000BF92CF92DF92EF92FF926B017C018090970290909802A0909902B0909A024090BA
:202E20009302509094026090950270909602A3019201C501B4010E94083E87FF19C060917E
:202E40003E0270E080E090E00E94A73C2AE037ED43E25CE30E94433EA70196010E94433E76
:202E60006B017C01A30192010E94083E87FD0BC0409242025092430260924402709245023D
:202E800080E094E04AC0A5019401C701B6010E94053C1816FCF020E030E0A901C701B60164
:202EA0000E94053C81110BC01092420210924302109244021092450280E090E02EC0809264
:202EC000420290924302A0924402B092450281E090E023C0C0924202D0924302E09244029D
:202EE000F0924502A5019401C701B6010E942B3B20913E0530913F05409140055091410511
:202F00000E94433E0E94E23C20E030E040E85FE30E942C3B0E94793CCB01FF90EF90DF90AB
:202F2000CF90BF90AF909F908F907F906F905F904F900895E0EAF0E08081877F8083E2E077
:202F4000F1E08081877F8083089590913302911129C081110AC0109242021092430210924D
:202F6000440210924502E6DF1BC090910201803111F49F7E01C090619093020190919B02F5
:202F800091FF05C0803219F440E050E0BA01CB01BA012FDF48DB8091020188608093020148
:202FA000109240020895E1E0F1E080818062808383E08093A0008AE18093A10080E094E00F
:202FC0009093A9008093A80080818860808380818061808320919702309198024091990288
:202FE00050919A02609193027091940280919502909196020E942B3B9B01AC0160E070ECE9
:203000008FE794E40E940C3C60933E0570933F0580934005909341058DCF1F920F920FB627
:203020000F9211248F9380913D058F5F80933D058F910F900FBE0F901F9018956AE080E0D1
:2030400090E00E94D40245E650E066E472E081E090E00C94F6020F931F93CF93C82F8B01EF
:203060000E94242321E1C29FC001112440E150E0B8019E5FCF911F910F910C94F6021F930D
:20308000CF93DF93182FEB0181E1189FB00111247E5F40E150E0CE010E949202892B51F4FE
:2030A00080E1FE0111928A95E9F7BE01812FD3DF80E001C081E0DF91CF911F910895EF92CD
:2030C000FF920F931F93CF93DF93CDB7DEB760970FB6F894DEBF0FBECDBF182F80FF1AC13F
:2030E0008AE0809386028FEF809389021092870282E08093880281E080938A024AE057ED17
:2031000063EA7CE340938B0250938C0260938D0270938E024FE652E163E07BE340938F02B0
:2031200050939002609391027093920240E050E068EC72E440939302509394026093950298
:203140007093960210929702109298021092990210929A0280939C0280E090E0A8E4B2E43F
:2031600080939D0290939E02A0939F02B093A00280E090E0A8E4B4E48093A1029093A202B0
:20318000A093A302B093A40288EC90E09093A6028093A50280E090E0A0EAB0E48093A7025B
:2031A0009093A802A093A902B093AA028AE180939B0289EE96E2A5E6B2E4809346029093CC
:2031C0004702A0934802B093490280934A0290934B02A0934C02B0934D0280E090E0A8E45D
:2031E000B3E480934E0290934F02A0935002B093510280E09CEFA0E8B6E4809356029093AB
:203200005702A0935802B093590280935A0290935B02A0935C02B0935D0280E090EDAEE895
:20322000B5E480935E0290935F02A0936002B093610280EC9FE7A1EABAE48093660290930A
:203240006702A0936802B093690280936A0290936B02A0936C02B0936D0280E09FECA9E1E3
:20326000BAE480936E0290936F02A0937002B093710280E090E0A1E6B4EC80937602909399
:203280007702A0937802B093790280937A0290937B02A0937C02B0937D0280E090E0A8EC44
:2032A000B2EC80937E0290937F02A0938002B093810282E395E5A5E5B1E480935202909336
:2032C0005302A0935402B093550280E090E6AAE6B6E48093620290936302A0936402B0939B
:2032E000650280E09AEBABE5BBE48093720290937302A0937402B093750280E090E0A4EB72
:20330000B3EC8093820290938302A0938402B093850294DE11FF0FC0CE0101967C0180E1B7
:20332000F70111928A95E9F700E0B701802F93DE0F5F0830D1F712FF14C060E080E093E0D5
:203340000E94D40260E081E093E00E94D40260E081E094E00E94D40260E082E094E00E9424
:20336000D40213FF0AC060E08EEA93E00E94D40260E08FEA93E00E94D40260960FB6F8940D
:20338000DEBF0FBECDBFDF91CF911F910F91FF90EF9008951F920F920FB60F9211240BB6BE
:2033A0000F922F933F934F935F936F937F938F939F93AF93BF93EF93FF93E091C600E132AA
:2033C00071F028F4E83179F40E94B52D5DC0EF3321F0EE3741F482E003C081E001C088E00D
:2033E0000E940F2551C0E7FF41C08E2F90E0FC01E458F109EE31F10508F046C08827EE559A
:20340000FF4F8F4F0C94723F80E2EACF8091320285FF3AC080E40E940F2580913A048093B5
:20342000390432C081E00DC082E00BC084E009C088E007C080E105C080E203C080E401C036
:2034400080E80E94F62420C081E00DC082E00BC084E009C088E007C080E105C080E203C066
:2034600080E401C080E80E94ED240EC0A0913A0481E08A0F90913904891731F0B0E0A75C23
:20348000BC4FEC9380933A04FF91EF91BF91AF919F918F917F916F915F914F913F912F91F1
:2034A0000F900BBE0F900FBE0F901F9018951F920F920FB60F9211240BB60F928F939F939A
:2034C000EF93FF9380913C05E82FF0E0E45CFB4F90819093C6008F5F80933C0590913B0479
:2034E000891305C08091C1008F7D8093C100FF91EF919F918F910F900BBE0F900FBE0F90E6
:203500001F901895E0913B0491E09E0F20913C05921305C020919C0F24FFF8CF0BC0F0E044
:20352000E45CFB4F808390933B048091C10080628093C1000895CF93C82F81E593E0D8D697
:203540008C2FB3D6CF9118C1EF92FF920F931F93CF93DF936091860270E080E02BD160919E
:20356000890270E081E026D16091870270E082E021D16091880270E083E01CD160919B0251
:2035800062FB662760F970E084E014D160919B0266FB662760F970E085E00CD180919B023A
:2035A000082E000C990B692F661F6627661F70E086E000D160918A0270E08AE0FBD040919C
:2035C0008B0250918C0260918D0270918E0223E08BE0D5D040918F02509190026091910272
:2035E0007091920223E08CE0CAD060919B02617070E08DE0DFD060919B0265FB662760F98E
:2036000070E084E1D7D060919B0263FB662760F970E085E1CFD060919B026295617070E081
:2036200086E1C8D060919C0270E087E1C3D040919D0250919E0260919F027091A00223E088
:2036400088E19DD04091A1025091A2026091A3027091A40223E089E192D06091A5027091F6
:20366000A6028AE1A7D04091A7025091A8026091A9027091AA0223E08BE181D0409193024C
:2036800050919402609195027091960220E08EE176D040919702509198026091990270916B
:2036A0009A0220E08FE16BD060919B026695617070E080E27FD0D4E6F12C06E412E084E051
:2036C000E82EED0ECD2F82E0F81691F0E3E0FE16E9F0F1E0FF1631F0F801408151816281C6
:2036E00073811AC0F801408951896289738914C020E030E041E655E4F80160A171A182A106
:2037000093A10E940C3CAB01BC0106C0F80140A951A962A973A9705823E08C2F30D00C5F68
:203720001F4FCF5FEC12CFCFD65FF394DC3829F6DF91CF911F910F91FF90EF900895811105
:2037400003C083EC93E0D4C5F6CE0F931F93CF938C01C0E0F80161917191819191918F01D3
:2037600038D5C33011F08CE2CDDECF5FC43091F7CF911F910F91089580EC93E0B9C5CF927A
:20378000DF92EF92FF92CF93DF93D82F6A017B01C22F84E2B7DE8D2F88D58DE3B3DE4C2F63
:2037A000C701B6016ED4DF91CF91FF90EF90DF90CF90E2CFCF93DF93D82FC62F84E2A2DE35
:2037C0008D2F73D58DE39EDE8C2F6FD5DF91CF91D3CF8DE597DED0CF3F924F925F926F925E
:2037E0007F928F929F92AF92BF92CF92DF92EF92FF920F931F93CF93DF93CDB7DEB7E09738
:203800000FB6F894DEBF0FBECDBF10919D0F112361F181E08093320288E593E069D5812F18
:2038200044D5AADF85EF91E0019739F0EFE9FFE03197F1F700C00000F7CF1150123030F090
:203840008FB7F89410929D0F8FBF0FC085E493E04FD583E393E04CD5BCDF80E10E94052569
:2038600080919C0F84FFFCCFEBCF10919C0F112309F4CDC214FF04C081E080933302D8C35D
:2038800010FFDDC180E1E1E1F2E0DE01919601900D928A95E1F7BE016F5D7F4FCE0141965A
:2038A0000E9418258CE32EDE809132028830E1F058F4813091F1A8F0823091F1843009F0E8
:2038C0003FC088EA93E03BC0803221F118F4803171F036C0803439F1803891F580E993E039
:2038E0002EC08BEB93E02BC087EB93E028C08091340287FD0FC081EB93E0FAD480913402AB
:2039000080FF06C080E319C082FF16C085FFFACF81E313C08DEA93E012C082EA93E00FC0E1
:203920008CE993E00CC086E993E0E2D48091340283FFEACF83E301C082E3E4DD01C0D8D4FF
:2039400080918A02F82FF170BF2E80FF07C080914102882319F089E893E053C04090F3024B
:203960005090F4026090F5027090F60243ED842E42E0942E9E012F5F3F4F7901CE014196F1
:203980006C0101E0F40161917191819191914F0124853585468557850E942C3BF70160837E
:2039A000718382839383033099F4A30192010E942C3BF7016083718382839383BB2051F0F2
:2039C00094E0E90EF11C0F5FE4E0CE0ED11CDACFB11011C0F7012081318142815381F60160
:2039E00060817181828193810E942B3BF6016083718382839383043019F7B110ACCF82E802
:203A000093E076D4CE014196A0DE80918A0281FF1DC08DE793E06CD49091370E8091A20586
:203A2000981710F08D5D01C08150891B3ED48CE269DD8091390490913A04981720F0981BD2
:203A4000892F809502C08150891B2FD4E3D40097E1F0FC01C18CD28CE38CF48CC114D104FF
:203A6000E104F10491F088E793E042D4F7FE0AC08DE248DD66277727CB016C197D098E0907
:203A80009F0902C0C701B601B2D383E793E030D4809132028C7749F06091820F7091830F41
:203AA0008091840F9091850F03C060E070E0CB0182D38CE227DD609142027091430280913B
:203AC00044029091450240E0DCD20E943902F82EEBD7082F80910601982F90788091100264
:203AE000E92EE8268F2D802B8E2959F18EE693E0FFD3EE2011F080E505DDFF2081F0F0FEAC
:203B000002C088E5FFDCF1FE02C089E5FBDCF2FE02C08AE5F7DCF3FE02C081E4F3DC0023A7
:203B200081F000FF02C084E4EDDC01FF02C082E5E9DC02FF02C088E4E5DC03FF02C083E518
:203B4000E1DC80914102882321F081508093410216C0809132028C7711F08DE101C089E0BA
:203B60008093410280914002811103C081E08093400288E693E0BCD3CE010196E6DD8091E7
:203B80004002882321F081508093400253C0809132028C7711F083E101C089E080934002C2
:203BA00083E693E0A5D380913C027FD38CE2AADC80913D027AD38CE2A5DC80913E0275D3F7
:203BC00080910201082F087083FF0DC08091A000082F087083FF07C08091020184FF02C0D1
:203BE00002E001C001E080910501FF24F394982F927081FFF12C8091050180FF04C0FF2D94
:203C0000F260FF2E04C0011102C0992399F08FE593E06ED3002331F0013011F483E501C07D
:203C200083E470DCF0FE02C086E46CDCF1FE02C08DE468DC8EE366DC9FDD81E0E6D6812F0D
:203C4000887E09F463C080913202982F937009F04DC08872A1F080913402807C81F40E9444
:203C6000082D82E08093360280913202803239F417FDDCC180913402806880933402809104
:203C80003202811103C091E09093340216FF07C085FD05C09091340290649093340213FFF8
:203CA00005C0807E19F480E18093320215FF1EC085E493E01DD381EF92E01AD38ADD809187
:203CC000340287FD0EC090913202903439F483FFA9C1837E826080933402A4C1903809F0D8
:203CE000A1C18091340280628093340217FF0CC080913202813029F48091340285608093BC
:203D0000340280E88093320288EE7FD611FF40C0812F8876D9F580913202803471F48091F8
:203D2000340285FD0AC084FF03C01092320205C082FF03C0886080933402809132028823BB
:203D400081F084FF23C09091340290FF1FC0803141F480913F02882321F0886080933F0297
:203D600015C01092360256D3892B61F08091340286FD08C01092340288E080933202E9D68E
:203D80000ED804C0109234021092320282E03DD612FF3DC080913202807D90913402882304
:203DA000D1F080913502811116C097FD14C00E94082D8091A2058093A10565D48091360260
:203DC00081FF05C090913402916090933402897F809336021AC097FF08C01092360242D482
:203DE0000E942C2D0E948C0291D28091340285FF08C08F7781608093340280E480933202C7
:203E000004C0109234021092320284E0FED590919E0F992309F4A9C08FB7F89410929E0FE8
:203E20008FBF40913C0290FD02C0842F01C084E691FD865F92FD8A5093FD8F5F94FD81503C
:203E4000893C08F088EC8A3008F48AE030913D0295FD02C0232F01C024E696FD22E397FD74
:203E600029E1481303C0231709F47FC080933C0220933D02109240021091A2053090370E30
:203E800089E9D82E96E7E92E26E9F22E0EE73DE3432E131509F456C0812E912C489CC00115
:203EA000499C900D11249C012D553A4F5901C9013ED2562E672E782EC92E2D2D3E2D4F2D78
:203EC000502F0E94083E18164CF42D2D3E2D4F2D502F6D2D7E2D8F2D902F08C0252D362D10
:203EE000472D5C2D652D762D872D9C2D0E94433EF50161A372A383A394A3489CC001499CFA
:203F0000900D11249C012D553A4F7901F90185A496A4A7A4B0A8A501940161A172A183A139
:203F200094A10E94083E18162CF4F70181A292A2A3A2B4A21F5F143209F410E0D52C730106
:203F40000C2DA7CF8D2D9E2DAF2DB02F8093620590936305A0936405B09365050E94082D4D
:203F60008091A2058093A1058ED390919F0F992309F452C08FB7F89410929F0F8FBF2091B4
:203F80003E0290FD02C0822F01C084E691FD865F92FD8A5093FD8F5F94FD8150893C08F03D
:203FA00088EC8A3008F48AE0281749F02091360228602093360280933E0210924002809151
:203FC000320295FF0DC0803159F420913F02211102C022E003C020FF03C0246020933F0249
:203FE000292F207CC9F0882311F08871A9F01091B30297FF05C017FF02C01F7701C010687E
:2040000096FF05C016FF02C01F7B01C01064812F0E943A031093B302809132028C7F41F038
:2040200098D506C080E4809332025BCE80E22ECEE0960FB6F894DEBF0FBECDBFDF91CF918E
:204040001F910F91FF90EF90DF90CF90BF90AF909F908F907F906F905F904F903F90089510
:204060001092100290919B0297FD03C090E890931002882329F080911002805880931002E6
:2040800008958F929F92AF92BF92CF92DF92EF92FF920F931F93CF93DF93CDB7DEB72D97B6
:2040A0000FB6F894DEBF0FBECDBF6B017C01042F20E030E0A9010E94053C87FF06C08DE245
:2040C00021DAF7FAF094F7F8F094102F123060F020E030E048EC52E4C701B6010E94433E10
:2040E0006B017C011250F2CF00FF0AC020E030E040E251E4C701B6010E94433E6B017C01F9
:2041000020E030E040E05FE3C701B6010E942C3B0E94743C10E03AE0832E912CA12CB12C31
:20412000611571058105910591F0EE24E394F12CEC0EFD1EE10EF11CA50194010E94503FD3
:20414000605DF7016083B901CA011F5FE9CF80E3101748F4E1E0F0E0EC0FFD1FE10FF11DA0
:2041600080831F5FF5CF101311C0FE01E10FF11D80E381831F5F0AC0101302C08EE2C2D96A
:20418000FE01E10FF11D8081BDD911501111F4CF2D960FB6F894DEBF0FBECDBFDF91CF916B
:2041A0001F910F91FF90EF90DF90CF90BF90AF909F908F90089520919B0220FF08C02BE812
:2041C00032E441E25DE30E94433E41E001C040E058CF20919B0220FF08C02BE832E441E299
:2041E0005DE30E94433E44E001C043E04ACF8F929F92AF92BF92EF92FF921F93CF93DF93BF
:20420000CDB7DEB72A970FB6F894DEBF0FBECDBF611571058105910589F480E32A960FB610
:20422000F894DEBF0FBECDBFDF91CF911F91FF90EF90BF90AF909F908F9064C920E04AE03B
:20424000842E912CA12CB12C11E0120FEE24E394F12CEC0EFD1EE20EF11CA50194010E949E
:20426000503FF7016083B901CA01212F611571058105910549F7112341F0FE01E10FF11D55
:204280008081805D3FD91150F6CF2A960FB6F894DEBF0FBECDBFDF91CF911F91FF90EF906D
:2042A000BF90AF909F908F900895CF93DF93843630F06AE00E94303FC0E3C90F03C0C0E09E
:2042C0008A3030F06AE00E94303FD0E3D90F01C0D0E0805D17D9DD2311F08D2F13D9CC2338
:2042E00021F08C2FDF91CF910DC9DF91CF910895CF93DF93FC018491EF012196882319F09E
:2043000001D9FE01F8CFDF91CF910895E1E1F2E0A2E4B5E041915191619171914D935D9369
:204320006D937D9382E0E132F807A1F70895BF92CF92DF92EF92FF920F931F93CF93DF9367
:204340007C01FC0105A916A9D7A9C0AD808D80FF18C060913D0270E080E090E00E94A73C50
:204360002AE037ED43E25CE30E94433E9B01AC01B8018D2F9C2F0E94433E8B01D82FC92F51
:204380002DC082FD17C060913C0270E080E090E00E94A73C2AE037ED43E25CE30E94433E51
:2043A0009B01AC01B8018D2F9C2F0E94433E8B01D82FC92FF701B1A8C2A8D3A8F4A82B2D9C
:2043C0003C2D4D2D5F2DB8018D2F9C2F0E94083E181624F40B2D1C2DDD2DCF2D20E030E069
:2043E00040E85FE3B8018D2F9C2F0E94083E181624F000E010E0D0E8CFE3B8018D2F9C2F6F
:20440000DF91CF911F910F91FF90EF90DF90CF90BF9008958091A2059091370E981739F0BE
:204420002DE3829FC00111248D559A4F089580E090E00895CF92DF92EF92FF921F93CF9388
:20444000DF93CAD980913402882309F4EFC0E2DF009771F4C091B4028091B302C82BC090DC
:20446000B602D090B702E090B802F090B90206C0FC01C08DC1ACD2ACE3ACF4AC80919B022E
:2044800081FF02C080E2A9D2DC2FD07311E0C07480913402882309F4C9C09091330291111A
:2044A000C5C080FFC1C090913202292F207C09F474C082FD12C010923F0240E050E0BA01BE
:2044C00080E00E94A51780E00E943A03809134028D7F846080933402A7C09038C1F485E412
:2044E00093E006DF8EEA92E003DF73D940E050E0BA0180E00E94A51780E00E943A030E94A2
:20450000951380913302811191C066D9FACF903441F4CAD280FD05C0809134028F7D809385
:2045200034028091340283FF7FC09091B4029923C1F081FD16C080919B0281FF06C08091A0
:2045400036028860809336020CC0B701A6018D2F0E94A51741E060E070E080E890E40E947C
:20456000862D8091B302882371F08091340281FD0AC08C2F0E943A0341E060E070E080E874
:204580009FE30E94862D8091340281FD4DC080618093340282E043D247C080913F028823CD
:2045A000A9F181FF0DC08091B4028823A9F040E050E0BA0180E00E94A51710933F0234C068
:2045C0008C7091F18091B402811109C080913F0283FF02C082E023D210923F0225C085E41D
:2045E00093E086DE87EB92E083DEF3D880919B0281FF06C080913602886080933602E6CFAF
:20460000B701A6018D2F0E94A517E0CF8091360283FF0AC0B701A6018D2F0E94A517809153
:204620003602877F80933602D7D832CFDF91CF911F91FF90EF90DF90CF900895EBDE892BCB
:2046400011F082E0ECC10895F9DFF4DE80913302811107C0DFDE892BC1F78091320288303E
:20466000A1F3089584E2E2E4F5E0DF011D928A95E9F71092A2051092370E81E0809366056B
:204680001092A10508952F923F924F925F926F927F928F929F92AF92BF92CF92DF92EF9288
:2046A000FF920F931F93CF93DF93C091370EC11101C0C4E2C150D091A105DC1709F41DC18C
:2046C000EC2EF12C2DE3C29F800111240D551A4FF801A1A0B2A0C3A0D4A065A176A187A109
:2046E00090A59B01AC010E942C3BF80121A532A543A554A50E94433E4B018C019B01AC0177
:20470000B501C6010E94053C87FD02C0540168018DE38E9DF0018F9DF00D1124ED55FA4FC0
:20472000C501D601858F968FA78FB0A3C11101C0C4E2C150DC1761F02DE32E9DC0012F9D24
:20474000900D11249C012D553A4F7901DDE333C08091A205D81360C00E94082D5DC0AC2E21
:20476000B12CDA9DC001DB9D900D1124FC01ED55FA4F6F01C11101C0C4E2C1508091A205E0
:204780008C1302C00E94082DDA9D8001DB9D100D11240D551A4FF80181A092A0A3A0B4A071
:2047A000A5019401658D768D878D90A10E94053C811106C076018091A105C813D0CF2CC0B5
:2047C000F80165A176A187A190A59B01AC010E942C3BF80121A532A543A554A50E94433E7A
:2047E000F701258D368D478D50A10E942C3B2B013C019B01AC01C501B4010E94083EF80170
:2048000018162CF4458E568E678E70A2D3CF858E968EA78EB0A2CECFD091A105FDE3DF9F2A
:20482000800111240D551A4FC1E0CD0FC43209F4C0E02090370E8DE3382EC21509F45BC02D
:20484000CC2ED12C3C9CC0013D9C900D11249C012D553A4F7901F801458C568C678C70A04C
:20486000F901858C968CA78CB0A0A5019401C301B2010E94053C87FF24C0F80165A176A173
:2048800087A190A59B01AC010E942C3BF80121A532A543A554A50E94433EA30192010E94F6
:2048A0002C3B2B013C019B01AC01C501B4010E94083E181634F4F701458E568E678E70A270
:2048C000DC2F3C9CF0013D9CF00D1124ED55FA4F21A132A143A154A1658D768D878D90A1C6
:2048E0000E94053C811101C0DC2FCF5FC43209F4C0E08701A2CFD093A105DF91CF911F9134
:204900000F91FF90EF90DF90CF90BF90AF909F908F907F906F905F904F903F902F90089538
:20492000CF93DF93C5EADFE08991882319F00E94821AFACFDF91CF910895CF93DF9321E01E
:2049400031E0482F429FC001439F900D1124EC01DD5F40E051E0BE0185EA9FE00E9492021C
:20496000892B61F41092A50F6FDE40E051E065EA7FE0CE010E94F60280E001C081E0DF9131
:20498000CF910895CF93DF93C0E08C2FD6DF81110DC01092A50F8EE30E94821AC1DF8AE3C5
:2049A0000E94821A87E00E949B1A11C08091A50F882369F00E945303D82F8EE30E94821AB3
:2049C000AFDF8AE30E94821A8D2F0E949F1BCF5FC230D9F6DF91CF9108959FB7F894209197
:2049E0009F0F822B80939F0F9FBF08959FB7F89420919E0F822B80939E0F9FBF08959FB7A2
:204A0000F89480939D0F9FBF08952FB7F89490919C0F8095892380939C0F2FBF08959FB7B2
:204A2000F89420919C0F822B80939C0F9FBF08958F929F92AF92BF92CF92DF92EF92FF9260
:204A40000F931F93CF93DF93EB0126E4E22E22E0F22E8C016B0180E1C80ED11C69917991E5
:204A600089919991F70181909190A190B1907F010E94A73CA50194010E940C3CF80161933F
:204A80007193819391938F01CC15DD0539F7DF91CF911F910F91FF90EF90DF90CF90BF900C
:204AA000AF909F908F90089520910601822F8E7169F024FB882780F991E0892721FF8260A1
:204AC00022FF846023FD03C08860089580E008951F920F920FB60F9211240BB60F922F935B
:204AE0003F934F935F936F937F938F939F93AF93BF93EF93FF93D8DF8823C1F081FF03C0AA
:204B00000E94B52D13C083FF04C080919C0F82600BC082FF04C080919C0F886005C080FF62
:204B200005C080919C0F806280939C0FFF91EF91BF91AF919F918F917F916F915F914F9184
:204B40003F912F910F900BBE0F900FBE0F901F9018952F923F924F925F926F927F928F925F
:204B60009F92AF92BF92CF92DF92EF92FF920F931F93CF93DF93CDB7DEB7ED970FB6F89478
:204B8000DEBF0FBECDBF8091360280FD28C79091380E8091A00F981709F421C78091A30FEC
:204BA0009091A40F892B09F015C31091360212FF09C08091370E2DE3289FC00111248D55E4
:204BC0009A4F01C027DC9093A40F8093A30F2090A30F3090A40F2114310409F400C70091F9
:204BE0006C0F802F817000FF03C010926C0FF6C090916B0F9F5F993009F0892F80936B0F65
:204C0000E82EF12C39E13E9DF0013F9DF00D1124E657F14FF093A20FE093A10FD1015496DD
:204C20009C915497948B55969C915597958B56969C915697968B57969C915797978BE9E1FE
:204C40008E9FC001112420E030E04D915D916D917D91F901E80FF91FE657F14F689412F8BD
:204C6000440F551F661F771F1694D1F740835183628373832C5F3F4F2031310531F729E19C
:204C80002E9DF0012F9DF00D11249F012657314FF10180899189A289B38943E0880F991FCF
:204CA000AA1FBB1F4A95D1F7F901808B918BA28BB38BD10150966D917D918D919C91539725
:204CC0000E94A53C6093710F7093720F8093730F9093740FF10121A532A543A554A50E940D
:204CE0000C3C9B01AC016093750F7093760F8093770F9093780F60E070E080EA9FE30E94C3
:204D00000C3C6093790F70937A0F80937B0F90937C0F10926D0F10926E0F10926F0F1092FA
:204D2000700F11FD02C003FF1FC060918A0F70918B0F80918C0F90918D0F6093820F70932E
:204D4000830F8093840F9093850F9B01AC010E94433ED1015D966D937D938D939C939097AD
:204D6000077F00936C0F0FC0F101658D768D878D90A10E94D03E6093820F7093830F8093C8
:204D8000840F9093850FF9E1FE9DC001FF9D900D11249C012657314F7901D90158961C929B
:204DA00080919B0281FF1AC0F101808D85FF16C025A936A947A950AD60E070E080E89FE37E
:204DC0000E940C3C6093960F7093970F8093980F9093990FE1E0D7015896EC9310927E0FEE
:204DE00010927F0F1092800F1092810FD10195962D913D914D915C91989729833A834B8366
:204E00005C8360E070E080E09FE30E940C3C6D837E838F839887F10141A452A463A474A449
:204E2000858C968CA78CB0A011FF44C0F2E0F0937D0FA50194010E94433E9B01AC01C3015C
:204E4000B2010E942B3B6B017C0120E030E0A9010E94053C87FF1DC029813A814B815C81A0
:204E6000CA01B9010E942C3BA30192010E94433E9B01AC01C501B4010E942B3B0E94D03ECE
:204E800060938A0F70938B0F80938C0F90938D0F9EC1C0927E0FD0927F0FE092800FF092CB
:204EA000810F10928A0F10928B0F10928C0F10928D0F8DC110927D0F40928E0F50928F0F05
:204EC0006092900F7092910F12FF0CC010928A0F10928B0F10928C0F10928D0FC12CD12CE6
:204EE000760124C0E091A205EF5FE43209F4E0E08091370E8E1759F02DE32E9FF0011124D7
:204F0000ED55FA4FC58CD68CE78CF0A003C0C12CD12C7601C701B6010E94D03E60938A0F71
:204F200070938B0F80938C0F90938D0FC101FFD9698B7A8B8B8B9C8B9B01AC010E94433E2B
:204F400069877A878B879C87A50194010E94053C87FF6CC029853A854B855C85C501B401C2
:204F60000E942B3B2D813E814F8158850E94433E9B01AC01C301B2010E942B3B60938E0F94
:204F800070938F0F8093900F9093910F20E030E0A9010E94053C18162CF132E030937D0FB2
:204FA00029813A814B815C81CA01B9010E942C3BA30192010E94433E9B01AC01C501B40137
:204FC0000E942B3B0E94D03E60938A0F70938B0F80938C0F90938D0F80916C0F88608093FC
:204FE0006C0FF5C0A701960169857A858B859C850E942B3B2D813E814F8158850E94433EDF
:205000006093920F7093930F8093940F9093950F89899A89AB89BC898093860F9093870FCB
:20502000A093880FB093890F93E0B6C0A7019601C501B4010E942B3B2D813E814F81588506
:205040000E94433EA30192010E942C3B20E030E040E05FE30E94433E6D877E878F87988B26
:2050600020E030E0A9010E94083E18160CF097C02D853E854F855889C301B2010E94083E84
:2050800018160CF088C0A701960169857A858B859C850E942B3B2D813E814F8158850E947D
:2050A000433E9B01AC016093920F7093930F8093940F9093950F6D857E858F8598890E94A4
:2050C000083E1816BCF529893A894B895C892093860F3093870F4093880F5093890FA50151
:2050E000940169857A858B859C850E94053C811104C031E030937D0F6AC0A5019401698511
:205100007A858B859C850E942B3B2D813E814F8158850E94433E9B01AC01C301B2010E94B8
:205120002B3B60938E0F70938F0F8093900F9093910F4DC08D859E85AF85B88980938E0FFC
:2051400090938F0FA093900FB093910F8093920F9093930FA093940FB093950F29813A813E
:205160004B815C81CA01B9010E942C3B2D853E854F8558890E94433EA70196010E942C3B63
:205180000E94D03E6093860F7093870F8093880F9093890F1CC092E090937D0F18C0109262
:2051A0008E0F10928F0F1092900F1092910F80918A0F90918B0FA0918C0FB0918D0F80936E
:2051C000860F9093870FA093880FB093890F186010933602E091890EF8E0EF9FD001112415
:2051E000BE8BAD8BFD01E75CF14F80916B0F84832091A30F3091A40F3DAF2CAFD901999674
:20520000BC91BBA3F901F2A5FCA3D9019B96BC91BDA3F901F4A5FEA32091790F30917A0F44
:2052200040917B0F50917C0F6BA17CA18B2F9F2F0E942B3B6FA778AB89AB9AAB20E030E02C
:20524000A9010E94053C87FF04C01FA618AA19AA1AAA2091860F2F8B3091870F388F40917A
:20526000880F498F5091890F5A8F80918E0F8B8F90918F0F9C8FA091900FAD8FB091910FBE
:20528000BE8FE091820FE983F091830FFD832091840F29873091850F3D874091920F4FA34F
:2052A0005091930F58A78091940F89A79091950F9AA7A0917D0FA98BB0917E0FBBA7E091F0
:2052C0007F0FECA7F091800FFDA72091810F2EA730918A0F3CAB40918B0F4DAB50918C0FC3
:2052E0005EAB80918D0F8FAB2FA138A549A5592F6B8D7C8D8D8D9E8D0E94053C811103C01D
:2053000092E09BAB02C0A1E0ABAB2BA03CA00DA11EA18EE3C82E83ECD82E8EE2E82E89E35A
:20532000F82E412C512C3201CF8ED8A2E9A2FAA23989313009F4E8C0ACADBDAD313008F444
:2053400077C0333009F012C195962D913D914D915C919897C701B6010E94433E4B015C01EB
:205360002F89388D498D5A8D69817D8189859D850E942B3B9B01AC01C501B4010E94083E27
:2053800087FD31C02B8D3C8D4D8D5E8D6BA17CA18DA19EA10E942B3B9B01AC010E942C3B62
:2053A0006B017C0129813D8149855D856F89788D898D9A8D0E942C3B9B01AC01C701B601E1
:2053C0000E940C3C6B017C01BF89B983E88DED83F98DF9872A8D2D872B8C3C8C0D8D1E8D5C
:2053E00031E0398B3DC120E030E040E05FE3C501B4010E94433E9B01AC0169817D8189858B
:205400009D850E942B3BA70196010E94433E9B01AC01B101C8010E942B3B1B018C01A501E5
:20542000940169817D8189859D850E942B3B67C095962D913D914D915C919897C701B60160
:205440000E94433E4B015C0120E030E040E05FE30E94433E29813D8149855D850E942C3BCA
:20546000A70196010E94433E9B01AC01B101C8010E942B3B1B018C019B01AC016B8D7C8D0B
:205480008D8D9E8D0E94083E18168CF52B8D3C8D4D8D5E8D6BA17CA18DA19EA10E942B3B4C
:2054A0009B01AC010E942C3B6B017C0129813D8149855D856F89788D898D9A8D0E942C3B56
:2054C0009B01AC01C701B6010E940C3C6B017C01BF89B983E88DED83F98DF9872A8D2D8757
:2054E0003BA9398B2B8C3C8C0D8D1E8DB9C0A501940169817D8189859D850E942C3B69837F
:205500007D8389879D87ACC02F89388D498D5A8DC701B6010E94433E9B01AC01B101C8014B
:205520000E942B3B5B014C019B01AC016FA178A589A59AA50E94083E18160CF08FC02FA1A6
:2055400038A549A55AA5B101C8010E942B3B2F89388D498D5A8D0E940C3C6B017C012FA022
:2055600038A409A51AA542E0498B7AC095962D913D914D915C919897C701B6010E94433E5F
:205580004B015C0129813D8149855D850E94053C87FF37C020E030E040E05FE3C501B401FD
:2055A0000E94433E9B01AC0169817D8189859D850E942B3BA70196010E94433E9B01AC01B4
:2055C000B101C8010E942B3B68AF79AF8AAF9BAF2BA53CA54DA55EA50E94083E18168CF44A
:2055E000A501940169817D8189859D850E942B3B69837D8389879D8728AC39AC0AAD1BADF8
:205600002FC02BA53CA54DA55EA5B101C8010E942B3B9B01AC010E942C3B6B017C0129818D
:205620003D8149855D856CA97DA98EA99FA90E942C3B9B01AC01C701B6010E940C3C6B011B
:205640007C01BCA9B983EDA9ED83FEA9F9872FA92D872BA43CA40DA51EA502C015018401F2
:20566000A7019601C301B2010E942C3B2B013C012F8D38A149A15AA10E94053C87FF07C058
:20568000A30192016F8D78A189A19AA11AC02FA538A949A95AA9B101C8010E94083E181644
:2056A00014F52EE333EC4EE259E36F8D78A189A19AA10E942C3B6F8F78A389A39AA3A3019C
:2056C00092010E942B3B6B017C019101A8016BA57CA58DA59EA50E94053C87FD29CE398945
:2056E00030937D0F03C0498940937D0F89819D81A985BD858093820F9093830FA093840FB0
:20570000B093850FE091A10FF091A20F908D911104C08091360283FF43C0ACADBDAD58965D
:205720008C915897807359F1D996CD90DD90ED90FC90DC979923D1F02091960F3091970F31
:205740004091980F5091990F6091820F7091830F8091840F9091850F0E94433E9B01AC016E
:20576000C701B6010E94433E6B017C01C701B6010E94F91690939B0F80939A0F0CC0109277
:20578000420210924302109244021092450210929B0F10929A0F80913602877F80933602DC
:2057A00080919A0F90919B0FED89FE89E75CF14FFA87E987978386832091750F3091760F55
:2057C0004091770F5091780FB101C8010E94433E69837A838B839C830E94F23B6B017C019E
:2057E0006091710F7091720F8091730F9091740F0E94F23B4B015C01A70196010E942B3BC0
:205800000E94793C6D837E838F839887ED81FE81A985BA85ED93FC93EF2B41F4809136020E
:2058200081FF04C0816080933602D9C020916D0F30916E0F40916F0F5091700FC301B201CE
:205840000E942C3B2B013C0129813A814B815C81C501B4010E942B3B9B01AC01C301B20185
:205860000E940C3C4B015C0120EC31EE44E65EE40E94433E0E94F23B0E94793CED89FE89B8
:20588000E75CF14F603D37E073078105910510F4158230C0603A4FE074078105910518F444
:2058A00051E055830BC06034AFE17A078105910518F4B2E0B58302C023E02583ED89FE8913
:2058C000E75CF14F2581022E04C096958795779567950A94D2F74D815E8102C0440F551FBF
:2058E0002A95E2F7518340836115710551E08507910538F4ED89FE89E75CF14F73836283B3
:2059000004C08FEF9FEF938382838091A00F8093890E8F5F8A3019F08093A00F02C010925B
:20592000A00FE091A30FF091A40FC101D80181A792A7A3A7B4A7C092710FD092720FE09299
:20594000730FF092740F29813A814B815C81C701B6010E942B3BA50194010E94433E6093DA
:205960006D0F70936E0F80936F0F9093700F20917E0F30917F0F4091800F5091810FB101E8
:20598000C8010E94053C811102C920E030E0A901B101C8010E94083E90913602181614F056
:2059A00092FF04C091609093360219C01092A40F1092A30F9091A2058091370E891709F409
:2059C000E6C881E0890F843209F480E02091A105921302C08093A1058093A205D8C8ED96B9
:2059E0000FB6F894DEBF0FBECDBFDF91CF911F910F91FF90EF90DF90CF90BF90AF909F90A7
:205A00008F907F906F905F904F903F902F900895CF93DF93C091A30FD091A40F2097C9F005
:205A200080916C0F816080936C0F6091820F7091830F8091840F9091850F9B01AC010E9412
:205A4000433E6D8F7E8F8F8F98A31092A40F1092A30FDF91CF910895CF93DF930E9495132F
:205A600081E3EBE6FFE0DF01982F1D929A95E9F7C0E7D5E0DE011D928A95E9F71092A40F6F
:205A80001092A30F1092380E1092890E81E08093A00F10926F050E942313EBE6F5E08081D9
:205AA0008E8B21812F8B9281988F8381898F31B33B7FA7E6B5E04C91342B31BB31B3377F99
:205AC0004081342B31BB31B33F7E11964C911197342B31BB31B33F7D232B21BB21B32F7B5A
:205AE00012963C911297232B21BB21B32F77922B91BB92B19E7F13962C91922B92B992B1CA
:205B00009D7F892B82B9DF91CF9108951F93CF93DF93142F20E030E040EA51E40E94433EB2
:205B20000E94F23B0E94793CEB012097D1F080913302811116C0111103C00E941A2206C0A4
:205B40000E94EC1B8091340281FD0BC02FEF80E792E0215080409040E1F700C000002197C4
:205B6000E4CFDF91CF911F91089580919C0F84FD1DC080E10E940F250E949A170E943103DB
:205B800090913202892F8C7221F480913602867069F0943031F480919D0F811105C086E0EA
:205BA00001C083E00E94FF240C94951308958F929F92AF92BF92CF92DF92EF92FF920F93AD
:205BC0001F93CF93DF937C016B01DC01CC91D0E0FE01EB55F04F80818D3229F4EF01229669
:205BE000818101E009C08B3219F0CA55D04F03C0EF012296818100E0912CF0E010E020E02B
:205C000030E0A9015E01E0EDE80FEA30D0F4FF5FF93098F491101150A5E0B0E00E947A3F44
:205C2000DC01CB01880F991FAA1FBB1F9C01AD012E0F311D411D511D0AC0911008C01F5F76
:205C400006C0EE3F41F4911006C0992493942196D5018C91D7CFFF2309F44FC0CA01B901CE
:205C60000E94A53C4B015C0120E030E0A9010E94053C882349F11F3F64F42AE037ED43E26D
:205C80005CE3C501B4010E94433E4B015C011E5FF2CF1F3F59F42DEC3CEC4CEC5DE3C50116
:205CA000B4010E94433E4B015C010EC0112361F020E030E040E251E4C501B4010E94433E0B
:205CC0004B015C011150F2CF002351F0B7FAB094B7F8B094F60180829182A282B38206C082
:205CE000D6018D929D92AD92BC921397C55ADF40C150F701C08381E001C080E0DF91CF916C
:205D00001F910F91FF90EF90DF90CF90BF90AF909F908F9008952F923F924F925F926F9279
:205D20007F928F929F92AF92BF92CF92DF92EF92FF920F931F93CF93DF93CDB7DEB7E397CF
:205D40000FB6F894DEBF0FBECDBF909133029111FBC18FA7FE0171968DE0DF011D928A95F1
:205D6000E9F786E08D8FE6E4F2E0F9A7E8A75F019E01225E3F4F490100E010E0C12CD12CE5
:205D800076019FA5892F90E09EA78DA7802F002331F0013031F0033031F090E405C094E061
:205DA00003C090E101C091E0D4019D934D01EDA5FEA502C0F595E7958A95E2F7E0FF1BC07B
:205DC00020E030E040EC5FEBD501D0966D917D918D919C91D3970E94433E362E472E582EBE
:205DE000692EA70196010E94053C87FD04C0C32CD42CE52CF62C0F5F1F4FB4E0AB0EB11C8A
:205E00000430110519F62090A1023090A2024090A3025090A40234E0A32EBB24B394FE016D
:205E2000B696FFA3EEA361E172E0CE0101960E94182580919C02282F30E039AB28AB22E338
:205E4000822E22E0922EFE01319681E192E09CA78BA78C01DE015E963D019E012E5D3F4F6B
:205E60003BAB2AAB20E030E01AA6B701A6017058AAA9BBA91C928DA59EA5022E02C095957A
:205E800087950A94E2F780FF29C0BAA5BF5FBAA7D8011D921D921D921C92139788A999A978
:205EA000022E02C0959587950A94E2F780FF03C0BB2019F007C0BB2029F0C082D182E28259
:205EC000F38204C04083518362837383D3018C91AAA9BBA98C93D40116968C932F5F3F4F94
:205EE0008AA99BA901969BAB8AAB9FEF691A790AAFEF8A1A9A0A34960C5F1F4F2430310572
:205F000009F0B6CFBAA56B2F70E080E090E00E94A53C0E94D03E9B01AC01C201B1010E9457
:205F2000433E698B7A8B8B8B9C8BBE016F5E7F4FCE01019649D7E4E0E09336020E94A925EB
:205F40000E94CF16B11008C00E94A92580919C0F847309F455C02EC00E94390298E3C92EBF
:205F600092E0D92EFE01B296AE01425E5F4F20E030E090E0BF01F080DA01ED90AD011F2D62
:205F80001E2161F08C01022E02C0159507950A94E2F700FF03C0E094FE20F0823196DB01CC
:205FA0006C91D6016D936D012F5F3F4F2430310509F7CACF10919C0F14FF03C086E00E9436
:205FC000FF2415FF03C087E00E94FF24B11007C00E943902BFA58B2339F088E003C012FFBF
:205FE00003C089E00E94FF2480919D0F882321F0BCDD0E941A22A8C084E00E9405250AC05E
:20600000FE01B296819181119DCF2EA13FA12E173F07C1F721DD0091A5021091A6020115A2
:20602000110549F08FE99FE00197F1F700C0000001501109F4CF91E0B926C9F020E030E093
:2060400040EA50E46091A7027091A8028091A9029091AA020E94433E6B017C0120909D02B9
:2060600030909E0240909F025090A00210C0C090A702D090A802E090A902F090AA02209003
:20608000A1023090A2024090A3025090A402AA94A110C9CEE0909C02F12C8090A702909074
:2060A000A802A090A902B090AA022401350177FA709477F870948DA59EA5002E02C095959D
:2060C00087950A94E2F780FF2CC0C701002E02C0959587950A94E2F7A8A5B9A580FF11C052
:2060E000D0962D913D914D915C91D397C501B4010E942C3BE8A5F9A52081318142815381E0
:2061000006C02D913D914D915C91C301B2010E94433E0E94133EEBA5FCA5608371838283C8
:2061200093830F5F1F4F2BA53CA52C5F3F4F3CA72BA788A599A5049699A788A70430110530
:2061400009F0B9CF10923602E3960FB6F894DEBF0FBECDBFDF91CF911F910F91FF90EF90F6
:20616000DF90CF90BF90AF909F908F907F906F905F904F903F902F900895CF93DF93CDB716
:20618000DEB765970FB6F894DEBF0FBECDBF8091C00082608093C0001092C50080E18093C6
:2061A000C4008091C10088698093C10080E090E00E9431028A3009F0B6C545E650E061E015
:2061C00070E086E492E00E949202892B09F4ABC5829A849A869A089A0C9A0D9A0E9A0F9AA2
:2061E000839A859A879A099A809181008F7E809381008091810088608093810080918000CD
:206200008C7F80938000809180008F708093800080916E00887F80936E0014BC15BC809104
:206220006E00816080936E0080910701817E80930701809108018E618093080180916D00B8
:206240008E6180936D008091680084608093680080910F02816080930F0280910E028260CD
:2062600080930E0280910D02846080930D0280910C02886080930C0280E1E1E1F2E0DF01D8
:206280001D928A95E9F778941092320211E2212E12E0312E992493948091320294E1E2E378
:2062A000F2E011929A95E9F78093320284E680933C0280933D0280933E0280E1D1011D92D1
:2062C0008A95E9F71092310210929C0F10929D0F10929E0F10929F0F80913A048093390411
:2062E0008CE4EBEAF2E011928A95E9F763ED72E080E00E943F18811103C087E00E949B1AD7
:206300000E94D31780910401826080930401809104018160809304010E9431030E94110247
:20632000809107018F77809307018091080180688093080180E00E943020109291001092DE
:20634000900080919100887F81608093910080919100836080939100809171008E7F8093B4
:2063600071000E94322378DB0E9486210E948C028CEC91E00E94782180919B0283FF10C0C5
:206380000E943902882361F09092320285E493E00E94782184EE92E00E9478210E94E91BF2
:2063A00080913202817899F085E493E00E9478218FE193E00E9478210E94E91B90923202E5
:2063C00010E000E0A2E0EA2EB3E08B2E31C0109232020E94542580FF07C080919C0F806241
:2063E00080939C0F0E941A220E94C224E9CFE92FF0E0E75CFC4F80819F5F909339048F3F1E
:20640000E9F08A3021F50E941A2280913302811143CFE12FF0E0EB55F04F1082F02FF1709A
:20642000FF2E00FF18C08BE00E949B1A10E000E09091390480913A049813D9CF0E941E23E3
:206440000E941A2280913302882391F325CF8D3009F043C4D8CF8091A50F882309F43AC426
:20646000843209F02FC49D8A8091A60F833409F134F4882361F0843209F018C11AC08A3498
:2064800059F08835B1F0873409F010C112C084E692E00E94782114C4809132028F7D09F0C5
:2064A000FCC38091A70F8D3309F002C40E945303FAC39091A70F9111FBC3833409F4BBC0BC
:2064C0001CF4843239F0FCC3873469F0883509F4D1C0F6C3809132028871F82E09F0DDC3F9
:2064E0000E94A41AEDC38EE592E00E9478218091AB028C3838F08AE592E00E947821809195
:20650000AB028A580E9455218BE492E00E9478218091B1028A5C0E9455218BE492E00E9473
:2065200078218091AF028F5E0E9455218BE492E00E9478218091AD0225E1281B822F0E9483
:2065400055218BE492E00E9478218091AE02865A0E9455218BE492E00E9478218091AC0215
:206560003EE5381B832F0E9455218091B202882399F08EE492E00E9478218091B20283304B
:2065800029F08E3139F0823039F404C080E30E94821A02C00E9455218EE492E00E947821BD
:2065A0008091B402803131F0803231F0811107C085E303C083E301C084E30E94821A8EE4AD
:2065C00092E00E9478218091B302882359F087FF03C087E30E94821A8091B30286FF05C053
:2065E00088E301C089E30E94821A87E592E00E9478218091BE020E94552184E592E00E9446
:2066000078216091BA027091BB028091BC029091BD020E94DB2081E592E00E947821609126
:20662000B6027091B7028091B8029091B90240E00E9441200DC080913202823061F495DA96
:2066400085E493E00E9478218CEF92E00E9478210E94E91B35C3811120C3E092320285E4D9
:2066600093E00E94782185E093E00E9478210E94E91B45C080913202813009F021C30E9439
:206680005425982F9170F92E80FF03C0FDE0FF2E17C385E493E00E9478218DE093E00E94D3
:2066A00078210E94E91B109232020AC390913202923008F0F2C2893409F4A1C034F483323D
:2066C00071F0883409F459C063C1823509F40BC1833509F482C08E3409F05AC133C1809111
:2066E000A70F8111E5C210E0BE016F5F7F4F812F0E943F18811105C087E00E949B1AF12C85
:20670000DFC288E492E00E947821163029F0173041F482E492E002C085E492E00E94782134
:2067200004C086E3810F0E9455218AE30E94821ACE0101960E94A51B0E94E91B1F5F1830A5
:2067400099F68CE392E00E94782183EE92E00E94A51B0E94E91B86E392E00E94782160919C
:20676000F3027091F4028091F5029091F6020E94E9200E94E91BFED2A3C280919B0284FF55
:2067800089C20E94542580FD81CF84E0809332028091A70F81118CC20E94060284E0BBDAD1
:2067A00083E0B9DA0E941A2280913302811106C00E948C020E9486210E94110280913302F3
:2067C00081117EC2109232020E9495138091A70F811176C20E94C22492CF8091A70F8C34C6
:2067E00009F066C28091A80F803509F061C28091A90F81115DC280E80E940F2561C2ED8A8D
:206800008091A70F811152C040E051E06EEA73E085EA9FE00E949202892B51F41092A50F9E
:2068200040E051E065EA7FE08EEA93E00E94F6028EE092E00E9478210E9490240E94E91BBD
:2068400088E092E00E94782184E00E94552186E092E00E94782188E50E94821A89E50E94D9
:20686000821A8AE50E94821A81E40E94821A0E94E91B80E092E00E94782186E50E94821AD0
:206880008EE40E94821A8DE40E94821A8CE40E94821A8CE20E94821A83E20E9455218CE254
:2068A0000E94821A8FEF0E945521D2CE8D8A8D3309F0FEC183E0282F30E0F901EB55F04F92
:2068C0009081D901AE55B04F9C938F5F90819111F2CF8D8B40E051E065EA7FE08EEA93E038
:2068E0000E94F602EDC18091A70F833509F0E0C18091A80F843509F0DBC18091A90F8D3398
:2069000009F0D6C18091AB0F8111D2C18091AA0F843239F08A3239F0833209F0C9C182E0CF
:2069200003C081E001C08FEF0E945F1885E493E00E94782189EC92E00E9478210E94E91BFC
